{"abi":[{"type":"function","name":"readNumberOfHorses","inputs":[],"outputs":[{"name":"","type":"uint256","internalType":"uint256"}],"stateMutability":"view"},{"type":"function","name":"updateHorseNumber","inputs":[{"name":"newNumberOfHorses","type":"uint256","internalType":"uint256"}],"outputs":[],"stateMutability":"nonpayable"}],"bytecode":{"object":"0x608060405234801561000f575f80fd5b5060b48061001c5f395ff3fe6080604052348015600e575f80fd5b50600436106030575f3560e01c8063cdfead2e146034578063e026c017146045575b5f80fd5b6043603f3660046068565b5f55565b005b604b605d565b60405190815260200160405180910390f35b5f8054805f5260205ff35b5f602082840312156077575f80fd5b503591905056fea26469706673582212203273195dbafa716f9ba9a7a3c2b93028f76c05269eb8c97f2b999c5a5e64ac7864736f6c63430008140033","linkReferences":{}},"methodIdentifiers":{"readNumberOfHorses()":"e026c017","updateHorseNumber(uint256)":"cdfead2e"},"id":31}