{"abi":[{"type":"function","name":"get_config_with_create_2","inputs":[{"name":"salt","type":"uint256","internalType":"uint256"}],"outputs":[{"name":"","type":"address","internalType":"address"}],"stateMutability":"view"}],"bytecode":{"object":"0x612943610035600b8282823980515f1a60731461002957634e487b7160e01b5f525f60045260245ffd5b305f52607381538281f3fe730000000000000000000000000000000000000000301460806040526004361061004a575f3560e01c806301f9ad9c1461004e57806325d1b8031461008957806379502c551461009c575b5f80fd5b818015610059575f80fd5b5061006d6100683660046101bc565b6100b0565b6040516001600160a01b03909116815260200160405180910390f35b61006d6100973660046101bc565b6100e4565b8180156100a7575f80fd5b5061006d610183565b5f815f1b6040516100c0906101af565b8190604051809103905ff59050801580156100dd573d5f803e3d5ffd5b5092915050565b6040515f906001600160f81b03199030908490610103602082016101af565b6020820181038252601f19601f820116604052508051906020012060405160200161016594939291906001600160f81b031994909416845260609290921b6bffffffffffffffffffffffff191660018401526015830152603582015260550190565b60408051601f19818403018152919052805160209091012092915050565b5f604051610190906101af565b604051809103905ff0801580156101a9573d5f803e3d5ffd5b50905090565b61273a806101d483390190565b5f602082840312156101cc575f80fd5b503591905056fe6080604052600380546001600160a01b03191630179055348015610021575f80fd5b5061270b8061002f5f395ff3fe608060405260043610610147575f3560e01c80636b07af10116100b3578063c76023161161006d578063c7602316146103a0578063d5f39488146103b3578063dd1ec824146103d2578063df9f3dee146103e6578063e5df3076146102ce578063e9e68e1d14610420575f80fd5b80636b07af10146102ce5780636fcef9d5146102ed5780637dc2225f1461030c5780638093a1b91461032d57806392bb10d71461034c578063c5effd021461038a575f80fd5b806328764d141161010457806328764d141461021e57806339614e4f1461023d5780633a7684631461025c5780633fa4f245146102835780634e9b75b6146102a657806368f192f2146102ba575f80fd5b80630c7d16811461014b5780630cc76616146101815780631a8f1a1c146101a1578063220481ef146101d85780632232d908146101eb57806324c12bf61461020a575b5f80fd5b348015610156575f80fd5b5061016a610165366004611d0e565b610450565b604051610178929190611d72565b60405180910390f35b61019461018f366004611e62565b61058b565b6040516101789190611e93565b3480156101ac575f80fd5b506101c06101bb366004611e62565b6105c2565b6040516001600160a01b039091168152602001610178565b6101946101e6366004611e62565b6105d7565b3480156101f6575f80fd5b506101c0610205366004611e62565b6111a2565b348015610215575f80fd5b506101946111ae565b348015610229575f80fd5b506101c0610238366004611ea5565b611239565b348015610248575f80fd5b50610194610257366004611ea5565b611246565b348015610267575f80fd5b506101c0737109709ecfa91a80626ff3989d68f67f5b1dd12d81565b34801561028e575f80fd5b5061029860025481565b604051908152602001610178565b3480156102b1575f80fd5b50610194611457565b3480156102c5575f80fd5b50610194611464565b3480156102d9575f80fd5b506101c06102e8366004611ee9565b611471565b3480156102f8575f80fd5b506101c0610307366004611f45565b6114f9565b348015610317575f80fd5b506101c0610326366004611d0e565b6002553090565b348015610338575f80fd5b506101c0610347366004611f8f565b611539565b348015610357575f80fd5b506101c0610366366004611fee565b600380546001600160a01b0319166001600160a01b03929092169190911790553090565b348015610395575f80fd5b5061039e611594565b005b6101c06103ae366004611e62565b611731565b3480156103be575f80fd5b506003546101c0906001600160a01b031681565b3480156103dd575f80fd5b5061019461182e565b3480156103f1575f80fd5b506101c0610400366004612007565b60038054911515600160a01b0260ff60a01b199092169190911790553090565b34801561042b575f80fd5b5060035461044090600160a01b900460ff1681565b6040519015158152602001610178565b6005818154811061045f575f80fd5b905f5260205f2090600202015f91509050805f01805461047e90612026565b80601f01602080910402602001604051908101604052809291908181526020018280546104aa90612026565b80156104f55780601f106104cc576101008083540402835291602001916104f5565b820191905f5260205f20905b8154815290600101906020018083116104d857829003601f168201915b50505050509080600101805461050a90612026565b80601f016020809104026020016040519081016040528092919081815260200182805461053690612026565b80156105815780601f1061055857610100808354040283529160200191610581565b820191905f5260205f20905b81548152906001019060200180831161056457829003601f168201915b5050505050905082565b6060610596826105d7565b90508060016040516020016105ac9291906120cd565b6040516020818303038152906040529050919050565b5f60046105cf8382612138565b503092915050565b60606105e1611594565b5f610612836040805180820182525f8082526020918201528151808301909252825182529182019181019190915290565b60408051808201825260018152602f60f81b6020808301918252835180850185525f8082529082018190528451808601909552925184528301529192509061065a8383611915565b610665906001612207565b6001600160401b0381111561067c5761067c611d9f565b6040519080825280602002602001820160405280156106af57816020015b606081526020019060019003908161069a5790505b5090505f5b81518110156106ff576106cf6106ca85856119b0565b6119ce565b8282815181106106e1576106e161221a565b602002602001018190525080806106f79061222e565b9150506106b4565b506040805160018082528183019092525f91816020015b60608152602001906001900390816107165790505090506040518060600160405280602881526020016126ae60289139815f815181106107585761075861221a565b6020908102919091010152604051638916046760e01b81525f90737109709ecfa91a80626ff3989d68f67f5b1dd12d9063891604679061079c908590600401612246565b5f604051808303815f875af11580156107b7573d5f803e3d5ffd5b505050506040513d5f823e601f3d908101601f191682016040526107de91908101906122a6565b90505f61081a6107ed8361230e565b6040516020016107ff91815260200190565b60405160208183030381529060405280519060200120611a32565b90505f845f8151811061082f5761082f61221a565b60200260200101519050600185511161086b578181604051602001610855929190612331565b6040516020818303038152906040529050610921565b60015b6001865161087c9190612376565b8110156108d357818682815181106108965761089661221a565b60200260200101516040516020016108af929190612389565b604051602081830303815290604052915080806108cb9061222e565b91505061086e565b50808286600188516108e59190612376565b815181106108f5576108f561221a565b602002602001015160405160200161090f939291906123c4565b60405160208183030381529060405290505b604080516003808252608082019092525f91816020015b606081526020019060019003908161093857905050905060405180606001604052806029815260200161265860299139815f8151811061097a5761097a61221a565b6020026020010181905250816040516020016109969190612427565b604051602081830303815290604052816001815181106109b8576109b861221a565b60200260200101819052505f6040516020016109d49190612461565b604051602081830303815290604052816002815181106109f6576109f661221a565b6020908102919091010152604051638916046760e01b8152737109709ecfa91a80626ff3989d68f67f5b1dd12d90638916046790610a38908490600401612246565b5f604051808303815f875af1158015610a53573d5f803e3d5ffd5b505050506040513d5f823e601f3d908101601f19168201604052610a7a91908101906122a6565b50604080516003808252608082019092525f91816020015b6060815260200190600190039081610a925790505090506040518060600160405280602d8152602001612681602d9139815f81518110610ad457610ad461221a565b602002602001018190525082604051602001610af09190612427565b60405160208183030381529060405281600181518110610b1257610b1261221a565b60200260200101819052508a604051602001610b2e9190612427565b60405160208183030381529060405281600281518110610b5057610b5061221a565b6020908102919091010152604051638916046760e01b8152737109709ecfa91a80626ff3989d68f67f5b1dd12d90638916046790610b92908490600401612246565b5f604051808303815f875af1158015610bad573d5f803e3d5ffd5b505050506040513d5f823e601f3d908101601f19168201604052610bd491908101906122a6565b5060408051600580825260c082019092525f91816020015b6060815260200190600190039081610bec57505060055490915015610e7a57600554610c19906006612207565b6001600160401b03811115610c3057610c30611d9f565b604051908082528060200260200182016040528015610c6357816020015b6060815260200190600190039081610c4e5790505b509050604051806040016040528060028152602001612d6360f01b81525081600581518110610c9457610c9461221a565b6020026020010181905250610cbc604051806040016040528060608152602001606081525090565b5f5b600554811015610e775760058181548110610cdb57610cdb61221a565b905f5260205f2090600202016040518060400160405290815f82018054610d0190612026565b80601f0160208091040260200160405190810160405280929190818152602001828054610d2d90612026565b8015610d785780601f10610d4f57610100808354040283529160200191610d78565b820191905f5260205f20905b815481529060010190602001808311610d5b57829003601f168201915b50505050508152602001600182018054610d9190612026565b80601f0160208091040260200160405190810160405280929190818152602001828054610dbd90612026565b8015610e085780601f10610ddf57610100808354040283529160200191610e08565b820191905f5260205f20905b815481529060010190602001808311610deb57829003601f168201915b5050505050815250509150815f01518260200151604051602001610e2d92919061247d565b60408051601f1981840301815291905283610e49836006612207565b81518110610e5957610e5961221a565b60200260200101819052508080610e6f9061222e565b915050610cbe565b50505b60405180604001604052806005815260200164687566666360d81b815250815f81518110610eaa57610eaa61221a565b602002602001018190525083604051602001610ec69190612427565b60405160208183030381529060405281600181518110610ee857610ee861221a565b60200260200101819052506040518060400160405280600281526020016116b160f11b81525081600281518110610f2157610f2161221a565b6020026020010181905250604051806040016040528060028152602001612d6560f01b81525081600381518110610f5a57610f5a61221a565b6020026020010181905250610f6d61182e565b81600481518110610f8057610f8061221a565b6020908102919091010152604051638916046760e01b8152737109709ecfa91a80626ff3989d68f67f5b1dd12d90638916046790610fc2908490600401612246565b5f604051808303815f875af1158015610fdd573d5f803e3d5ffd5b505050506040513d5f823e601f3d908101601f1916820160405261100491908101906122a6565b60408051600280825260608201909252919c505f9190816020015b606081526020019060019003908161101f57905050905060405180604001604052806002815260200161726d60f01b815250815f815181106110635761106361221a565b60200260200101819052508460405160200161107f9190612427565b604051602081830303815290604052816001815181106110a1576110a161221a565b602090810291909101015260035460405163ca669fa760e01b81526001600160a01b039091166004820152737109709ecfa91a80626ff3989d68f67f5b1dd12d9063ca669fa7906024015f604051808303815f87803b158015611102575f80fd5b505af1158015611114573d5f803e3d5ffd5b5050604051638916046760e01b8152737109709ecfa91a80626ff3989d68f67f5b1dd12d92506389160467915061114f908490600401612246565b5f604051808303815f875af115801561116a573d5f803e3d5ffd5b505050506040513d5f823e601f3d908101601f1916820160405261119191908101906122a6565b505050505050505050505050919050565b5f806105cf8382612138565b5f80546111ba90612026565b80601f01602080910402602001604051908101604052809291908181526020018280546111e690612026565b80156112315780601f1061120857610100808354040283529160200191611231565b820191905f5260205f20905b81548152906001019060200180831161121457829003601f168201915b505050505081565b5f60016105cf8382612138565b60408051808201909152601081526f181899199a1a9b1b9c1cb0b131b232b360811b60208201528151606091905f906112809060026124ac565b61128b906002612207565b6001600160401b038111156112a2576112a2611d9f565b6040519080825280601f01601f1916602001820160405280156112cc576020820181803683370190505b509050600360fc1b815f815181106112e6576112e661221a565b60200101906001600160f81b03191690815f1a905350600f60fb1b816001815181106113145761131461221a565b60200101906001600160f81b03191690815f1a9053505f5b845181101561144f5782600486838151811061134a5761134a61221a565b016020015182516001600160f81b031990911690911c60f81c9081106113725761137261221a565b01602001516001600160f81b0319168261138d8360026124ac565b611398906002612207565b815181106113a8576113a861221a565b60200101906001600160f81b03191690815f1a905350828582815181106113d1576113d161221a565b602091010151815160f89190911c600f169081106113f1576113f161221a565b01602001516001600160f81b0319168261140c8360026124ac565b611417906003612207565b815181106114275761142761221a565b60200101906001600160f81b03191690815f1a905350806114478161222e565b91505061132c565b509392505050565b600180546111ba90612026565b600480546111ba90612026565b5f600560405180604001604052808581526020016114af8560405160200161149b91815260200190565b604051602081830303815290604052611246565b905281546001810183555f928352602090922081519192600202019081906114d79082612138565b50602082015160018201906114ec9082612138565b5050503090505b92915050565b5f600560405180604001604052808581526020016114af8560405160200161149b919060609190911b6bffffffffffffffffffffffff1916815260140190565b6040805180820190915282815260208101829052600580546001810182555f918252825191929160029091027f036b6384b5eca791c62761152d0c79bb0604c104a5fb6f4eb0703f3154bb3db0019081906114d79082612138565b6040805160018082528183019092525f91816020015b60608152602001906001900390816115aa5790505090506040518060600160405280602a815260200161262e602a9139815f815181106115ec576115ec61221a565b6020908102919091010152604051638916046760e01b81525f90737109709ecfa91a80626ff3989d68f67f5b1dd12d90638916046790611630908590600401612246565b5f604051808303815f875af115801561164b573d5f803e3d5ffd5b505050506040513d5f823e601f3d908101601f1916820160405261167291908101906122a6565b90505f815f815181106116875761168761221a565b01602001516001600160f81b0319169050600160f81b81148061172b5760405162461bcd60e51b815260206004820152604b60248201527f496e76616c69642068756666632062696e6172792e2052756e20606375726c2060448201527f2d4c206765742e687566662e7368207c20626173686020616e6420606875666660648201526a3ab830103a37903334bc1760a91b608482015260a4015b60405180910390fd5b50505050565b5f8061173c8361058b565b6003549091505f90600160a01b900460ff16156117b457604080516302bf260160e61b81529051737109709ecfa91a80626ff3989d68f67f5b1dd12d9163afc98040916004808301925f92919082900301818387803b15801561179d575f80fd5b505af11580156117af573d5f803e3d5ffd5b505050505b60025482516020840182f09150506001600160a01b0381166118275760405162461bcd60e51b815260206004820152602660248201527f487566664465706c6f79657220636f756c64206e6f74206465706c6f7920636f6044820152651b9d1c9858dd60d21b6064820152608401611722565b9392505050565b60605f600460405160200161184391906124c3565b60405160208183030381529060405261185b9061230e565b9050806118865750506040805180820190915260088152677368616e6768616960c01b602082015290565b6004805461189390612026565b80601f01602080910402602001604051908101604052809291908181526020018280546118bf90612026565b801561190a5780601f106118e15761010080835404028352916020019161190a565b820191905f5260205f20905b8154815290600101906020018083116118ed57829003601f168201915b505050505091505090565b5f80825f0151611935855f01518660200151865f01518760200151611ad1565b61193f9190612207565b90505b835160208501516119539190612207565b81116119a957816119638161222e565b925050825f015161199885602001518361197d9190612376565b86516119899190612376565b83865f01518760200151611ad1565b6119a29190612207565b9050611942565b5092915050565b604080518082019091525f80825260208201526119a9838383611bef565b60605f825f01516001600160401b038111156119ec576119ec611d9f565b6040519080825280601f01601f191660200182016040528015611a16576020820181803683370190505b5090505f6020820190506119a9818560200151865f0151611c95565b6060805f5b60208110156119a95781601a858360208110611a5557611a5561221a565b611a619291901a6124ce565b611a6c9060616124fb565b604051602001611a8f919060f89190911b6001600160f81b031916815260010190565b60408051601f1981840301815290829052611aad9291602001612514565b60405160208183030381529060405291508080611ac99061222e565b915050611a37565b5f8381868511611bd85760208511611b88575f8515611b1b576001611af7876020612376565b611b029060086124ac565b611b0d906002612622565b611b179190612376565b1990505b845181165f87611b2b8b8b612207565b611b359190612376565b855190915083165b828114611b7a57818610611b6257611b558b8b612207565b9650505050505050611be7565b85611b6c8161222e565b965050838651169050611b3d565b859650505050505050611be7565b508383205f905b611b998689612376565b8211611bd657858320808203611bb55783945050505050611be7565b611bc0600185612207565b9350508180611bce9061222e565b925050611b8f565b505b611be28787612207565b925050505b949350505050565b604080518082019091525f80825260208201525f611c1d855f01518660200151865f01518760200151611ad1565b602080870180519186019190915251909150611c399082612376565b835284516020860151611c4c9190612207565b8103611c5a575f8552611c8c565b83518351611c689190612207565b85518690611c77908390612376565b9052508351611c869082612207565b60208601525b50909392505050565b60208110611ccd5781518352611cac602084612207565b9250611cb9602083612207565b9150611cc6602082612376565b9050611c95565b5f198115611cfb576001611ce2836020612376565b611cee90610100612622565b611cf89190612376565b90505b9151835183169219169190911790915250565b5f60208284031215611d1e575f80fd5b5035919050565b5f5b83811015611d3f578181015183820152602001611d27565b50505f910152565b5f8151808452611d5e816020860160208601611d25565b601f01601f19169290920160200192915050565b604081525f611d846040830185611d47565b8281036020840152611d968185611d47565b95945050505050565b634e487b7160e01b5f52604160045260245ffd5b604051601f8201601f191681016001600160401b0381118282101715611ddb57611ddb611d9f565b604052919050565b5f6001600160401b03821115611dfb57611dfb611d9f565b50601f01601f191660200190565b5f611e1b611e1684611de3565b611db3565b9050828152838383011115611e2e575f80fd5b828260208301375f602084830101529392505050565b5f82601f830112611e53575f80fd5b61182783833560208501611e09565b5f60208284031215611e72575f80fd5b81356001600160401b03811115611e87575f80fd5b611be784828501611e44565b602081525f6118276020830184611d47565b5f60208284031215611eb5575f80fd5b81356001600160401b03811115611eca575f80fd5b8201601f81018413611eda575f80fd5b611be784823560208401611e09565b5f8060408385031215611efa575f80fd5b82356001600160401b03811115611f0f575f80fd5b611f1b85828601611e44565b95602094909401359450505050565b80356001600160a01b0381168114611f40575f80fd5b919050565b5f8060408385031215611f56575f80fd5b82356001600160401b03811115611f6b575f80fd5b611f7785828601611e44565b925050611f8660208401611f2a565b90509250929050565b5f8060408385031215611fa0575f80fd5b82356001600160401b0380821115611fb6575f80fd5b611fc286838701611e44565b93506020850135915080821115611fd7575f80fd5b50611fe485828601611e44565b9150509250929050565b5f60208284031215611ffe575f80fd5b61182782611f2a565b5f60208284031215612017575f80fd5b81358015158114611827575f80fd5b600181811c9082168061203a57607f821691505b60208210810361205857634e487b7160e01b5f52602260045260245ffd5b50919050565b5f815461206a81612026565b600182811680156120825760018114612097576120c3565b60ff19841687528215158302870194506120c3565b855f526020805f205f5b858110156120ba5781548a8201529084019082016120a1565b50505082870194505b5050505092915050565b5f83516120de818460208801611d25565b611d968184018561205e565b601f821115612133575f81815260208120601f850160051c810160208610156121105750805b601f850160051c820191505b8181101561212f5782815560010161211c565b5050505b505050565b81516001600160401b0381111561215157612151611d9f565b6121658161215f8454612026565b846120ea565b602080601f831160018114612198575f84156121815750858301515b5f19600386901b1c1916600185901b17855561212f565b5f85815260208120601f198616915b828110156121c6578886015182559484019460019091019084016121a7565b50858210156121e357878501515f19600388901b60f8161c191681555b5050505050600190811b01905550565b634e487b7160e01b5f52601160045260245ffd5b808201808211156114f3576114f36121f3565b634e487b7160e01b5f52603260045260245ffd5b5f6001820161223f5761223f6121f3565b5060010190565b5f602080830181845280855180835260408601915060408160051b87010192508387015f5b8281101561229957603f19888603018452612287858351611d47565b9450928501929085019060010161226b565b5092979650505050505050565b5f602082840312156122b6575f80fd5b81516001600160401b038111156122cb575f80fd5b8201601f810184136122db575f80fd5b80516122e9611e1682611de3565b8181528560208385010111156122fd575f80fd5b611d96826020830160208601611d25565b80516020808301519190811015612058575f1960209190910360031b1b16919050565b675f5f54454d505f5f60c01b81525f8351612353816008850160208801611d25565b83519083019061236a816008840160208801611d25565b01600801949350505050565b818103818111156114f3576114f36121f3565b5f835161239a818460208801611d25565b602f60f81b90830190815283516123b8816001840160208801611d25565b01600101949350505050565b5f84516123d5818460208901611d25565b602f60f81b908301908152675f5f54454d505f5f60c01b60018201528451612404816009840160208901611d25565b845191019061241a816009840160208801611d25565b0160090195945050505050565b637372632f60e01b81525f8251612445816004850160208701611d25565b6417343ab33360d91b6004939091019283015250600901919050565b5f61246c828461205e565b600560f91b81526001019392505050565b5f835161248e818460208801611d25565b603d60f81b90830190815283516123b8816001840160208801611d25565b80820281158282048414176114f3576114f36121f3565b5f611827828461205e565b5f60ff8316806124ec57634e487b7160e01b5f52601260045260245ffd5b8060ff84160691505092915050565b60ff81811683821601908111156114f3576114f36121f3565b5f8351612525818460208801611d25565b835190830190612539818360208801611d25565b01949350505050565b600181815b8085111561257c57815f1904821115612562576125626121f3565b8085161561256f57918102915b93841c9390800290612547565b509250929050565b5f82612592575060016114f3565b8161259e57505f6114f3565b81600181146125b457600281146125be576125da565b60019150506114f3565b60ff8411156125cf576125cf6121f3565b50506001821b6114f3565b5060208310610133831016604e8410600b84101617156125fd575081810a6114f3565b6126078383612542565b805f190482111561261a5761261a6121f3565b029392505050565b5f611827838361258456fe2e2f6c69622f666f756e6472792d687566662f736372697074732f62696e6172795f636865636b2e73682e2f6c69622f666f756e6472792d687566662f736372697074732f66696c655f7772697465722e73682e2f6c69622f666f756e6472792d687566662f736372697074732f726561645f616e645f617070656e642e73682e2f6c69622f666f756e6472792d687566662f736372697074732f72616e645f62797465732e7368a26469706673582212208b48c3415cd7d28a87f7b8fa4eaf201a673e35d2589afa1638a14d97f2191fd964736f6c63430008140033a2646970667358221220ea5fb72907a749d854ac77b850f12eac927f61085b1d44446ca78cc93b99a49a64736f6c63430008140033","linkReferences":{}},"methodIdentifiers":{"config()":"79502c55","config_with_create_2(uint256)":"01f9ad9c","get_config_with_create_2(uint256)":"25d1b803"},"id":2}